:040000000CEF00F011
:10000800FACF01F0FBCF02F0E9CF03F0DFED09F002
:04001800E3EF0CF016
:1010000000E0FC2BFD76FD00008A02D50220030AD9
:101010000D4B77616E746C656E20415053433132D5
:1010200039392073696D706C65206375727665203F
:10103000666F6C6C6F776572202D2D2077697468F0
:10104000206572726F7220636F6465730A0D0020F1
:101050003C72657365743E20003C53544B46554CBE
:101060003E003C57445420544F3E005C3C4C564498
:101070003E003C424F523E003C504F523E0000006A
:10108000870EADEC0BF013501D5C14501E58D8B0F9
:1010900003D0166A162A01D0166A163A1F5016187F
:1010A000EF0B16181F6E8F0EADEC0BF013501D5C7E
:1010B00014501E58D8B003D0166A162A01D0166AEA
:1010C0001646164616461F501618F70B16181F6EB2
:1010D000970EADEC0BF013501D5C14501E58D8B099
:1010E00003D0166A162A01D0166A164616461F50F5
:1010F0001618FB0B16181F6E9F0EADEC0BF013505D
:101100001D5C14501E58D8B003D0166A162A01D0A0
:10111000166A16461F501618FD0B16181F6EA70EDE
:10112000ADEC0BF013501D5C14501E58D8B003D01A
:10113000166A162A01D0166A1F501618FE0B1618CA
:101140001F6E1200196E010E1A6E1550020D010E5F
:10115000F324F66E100EF420F76EF86A000EF822F3
:1011600016500900F5241B6E17500900F5201C6E5F
:101170001CAE07D0000E1A6E1B6C1C1ED8B01C2AA9
:1011800000D01CBE0AD0210E1B5C030E1C58D8A038
:1011900004D0030E1C6E200E1B6E1950D8A418D05C
:1011A0001BC00FF01CC010F0F5EC0AF01A50D8A4C8
:1011B00002D0829002D0828000D082B003D0186A20
:1011C000182A01D0186A184684501818FD0B16D03A
:1011D0001BC00FF01CC010F012EC0BF01A50D8A47A
:1011E00002D0829A02D0828A00D082BA03D0186AD2
:1011F000182A01D0186A84501818FE0B1818846E2B
:1012000000D01200000E146E000E156E000E166E49
:10121000000E176E000E186E000E196E000E1A6E7C
:10122000000E1B6EFBEC0CF0780E0F6E100E106EA5
:1012300080EC0BF0839083828384838683882DD017
:101240000400300E181817E1750E19181A101B102B
:10125000D8A411D0000E186E000E196E000E1A6E72
:10126000000E1B6E010E1426000E152216221722E8
:10127000839083820CD0980E181809E13A0E191841
:101280001A101B10D8A403D08380839200D0010EC3
:101290001826000E19221A221B221750161015109C
:1012A00006E10A0E145CD8B002D0CAD700D01200F2
:1012B0001F901F921F941F961F98D08EF29EF29C33
:1012C00097EC0BF001EC0DF0000E106E100E0F6E8F
:1012D0003C0E1EEC0AF00AEC0DF0000E836EB6EC2C
:1012E0000AF0EAEC0CF007EC0DF004EC0DF0FEEC6B
:1012F0000CF0B0EC0CF00C0E0F6E0A0E106EA70E78
:1013000087EC0AF0829A849082908492060EA2EC76
:101310000CF0C70ED2EC0CF0C70E2FEC0BF0000E49
:10132000106E000E0F6E12EC0BF0000E106E000E21
:101330000F6EF5EC0AF0020E1E6E000E1D6E12000E
:101340001FB803D00F6A0F2A01D00F6A83500F18FD
:10135000FE0B0F18836E1FB603D00F6A0F2A01D041
:101360000F6A0F4683500F18FD0B0F18836E1FB4C2
:1013700003D00F6A0F2A01D00F6A0F460F46835021
:101380000F18FB0B0F18836E1FB203D00F6A0F2AC2
:1013900001D00F6A0F460F460F4683500F18F70B08
:1013A0000F18836E1FB003D00F6A0F2A01D00F6A87
:1013B0000F3A83500F18EF0B0F18836E12000600C0
:1013C000EACF04F0E1CF05F0E2CF06F0D9CF07F085
:1013D000DACF08F0F3CF09F0F4CF0AF0F6CF0BF034
:1013E000F7CF0CF0F8CF0DF0F5CF0EF0A194926886
:1013F000936894689568030E966E010E206EA09413
:10140000D2980EC0F5FF0DC0F8FF0CC0F7FF0BC05F
:10141000F6FF0AC0F4FF09C0F3FF08C0DAFF07C0F7
:10142000D9FF06C0E2FF05C0E1FF04C0EAFF03C028
:10143000E9FF02C0FBFF01C0FAFF1100116E000EB0
:10144000AC6E000EAB6E11A002D0AC8800D011A221
:1014500003D0AC8CAB8C00D011A402D0AC8E00D0E9
:1014600011A602D0AB8802D0AB8A00D011B8AC84F0
:101470009E9811AA02D0AB8600D011AC02D09D8AF2
:1014800001D09D9A9E9A11AE02D09D8801D09D9860
:101490000FC0AFFF1050B06EAC8AAB8E949C948E90
:1014A000ACB8ACBE02D0948C00D01200000E0F6E0F
:1014B000000E106E000E116E000E126E0400300E43
:1014C0000F1811E1750E101811101210D8A40BD0BE
:1014D000000E0F6E000E106E000E116E000E126EDA
:1014E000839083820CD0980E0F1809E13A0E1018E1
:1014F00011101210D8A403D08380839200D0010E63
:101500000F26000E102211221222D8D71200136EBD
:10151000000EC26E000EC06ED8900F303C0BC26E33
:101520000FC011F0113AF00E1116300E11161050B6
:101530000F0B1110C16E13C011F0D8901136D89056
:101540001136380E111613C012F0123A0F0E121681
:10155000070E12161350800B12101110C06E0FAE32
:1015600003D09E9C9D8CF28CC280120033EC0CF058
:101570000009D8B403D002EC09F018D0BCEC0CF090
:101580000009D8B403D057EC0CF010D020EC0CF0CC
:101590000009D8B403D086EC0CF008D0FCAE03D020
:1015A00077EC0CF003D094EC0CF000D0120007D0D4
:1015B00000D066EC0BF018D046EC0CF015D01F50A4
:1015C0001F0B000AD8B4F8D7010AD8B4F2D7030A1F
:1015D000D8B4EFD7060AD8B4ECD70C0AD8B4E9D7F8
:1015E000180AD8B4E6D700D012000FC011F010C00E
:1015F00012F0060ED89011361236E82EFBD711C025
:1016000013F012C014F014C0BBFF13C011F0D89037
:101610001132D8901132300E1116BA50CF0B111072
:10162000BA6E12000FC011F010C012F0060ED89062
:1016300011361236E82EFBD711C013F012C014F089
:1016400014C0BEFF13C011F0D8901132D8901132DF
:10165000300E1116BD50CF0B1110BD6E12000F6E63
:101660000C0EBA6E050EF66E000EF76E300EF86EAA
:1016700008000001F5A002D0106802D0000E106E24
:101680001050D8B402D0949201D09396CA940FC04F
:10169000CBFFCA84120058EC09F00F0E0F6E100E2B
:1016A000106E80EC0BF0040000D040EC08F0A0ECD1
:1016B00009F0D7EC0AF00400F8EC0CF00009D8B4FB
:1016C000F4D767EC0CF0F1D70CEF00F01FA403D0B7
:1016D000E7EC0BF014D01FA803D00DEC0CF00FD0EA
:1016E0001FA603D0D4EC0BF00AD01FA203D0C1EC8C
:1016F0000BF005D01FA003D0FAEC0BF000D01200C5
:10170000110E116E000E126E04D013500FEC0DF07E
:1017100000D00FC0F6FF10C0F7FF0F4A102AF86A7A
:101720000800F5CF13F01350D8A4EFD71200D38CD4
:10173000D38AD3889B8C000E106E000E0F6E10BEE5
:1017400008D0F40E0F5C010E1058D8B005D001D0AF
:1017500003D00F4A102AF3D71200156E1550C7ECAC
:101760000CF00DEC0DF000D0F1EC0CF00009D8A459
:10177000FBD7DBEC0CF00FC013F010C014F000D05E
:101780001200060E156E000E176E000E166E000E7D
:10179000A2EC08F0030E156E000E176E000E166E0A
:1017A000010EA2EC08F01200030E156E000E176E6B
:1017B000000E166E000EA2EC08F0060E156E000E5E
:1017C000176E000E166E010EA2EC08F01200060E47
:1017D000156E000E176E000E166E000EA2EC08F0CD
:1017E000060E156E000E176E000E166E010EA2ECA0
:1017F00008F01200060E156E000E176E000E166E23
:10180000000EA2EC08F0000E156E000E176E000E12
:10181000166E010EA2EC08F01200000E156E000EFE
:10182000176E000E166E000EA2EC08F0060E156E76
:10183000000E176E000E166E010EA2EC08F01200DC
:10184000D0A20ED0D0A40AD0D0A006D0D0A602D06C
:1018500003D008D0010E06D0000E04D0000E02D036
:10186000000E00D01200D0B20ED0D0A40AD0D0B05A
:1018700006D0D0B602D003D008D0010E06D0000E9C
:1018800004D0000E02D0000E00D01200030E106E25
:10189000200E0F6E12EC0BF0030E106E200E0F6E6A
:1018A000F5EC0AF0849282908490829A1200FBEC0C
:1018B0000CF0720E0F6E100E106E80EC0BF0838029
:1018C000838283848386839856EC0AF012006B0E21
:1018D0000F6E100E106E80EC0BF00AEC0DF0839082
:1018E000838283848396838856EC0AF01200FC9EE0
:1018F000590E0F6E100E106E80EC0BF083908382E9
:1019000083948386839856EC0AF01200620E0F6E61
:10191000100E106E80EC0BF083908382839483868C
:10192000838856EC0AF012004F0E0F6E100E106EE8
:1019300080EC0BF08390838283948396839856EC9B
:101940000AF012000F6E0F50FB0BCA6E000ECC6E29
:101950009E920FAE02D09D8201D09D92CA84120049
:10196000D08ED288A284D29ED286D284D282D290C5
:10197000A194A084F28E1200D0B006D0D0B202D0D2
:1019800003D004D0010E02D0000E00D01200106E61
:10199000C2CF0FF0C30E0F16D89010303C0B0F10B3
:1019A000C26E12000F6E0C0EBD129494CA940FC03A
:1019B000CBFFCA841200C450116EC3500F6E11C009
:1019C00010F000D01200206A1F6A1E6A1D6A000112
:1019D0004BEF0BF094909492949494969498949ADC
:1019E0001200C2A202D0010E02D0000E00D01200DE
:1019F000205000D01200D082D0801200000E966ECF
:101A00001200949C948E1200C00E936E1200EF0E82
:101A1000926E1200600E956E1200C28212001200C9
:020000040020DA
:08000000FFFFFFFFFFFFFFFF00
:020000040030CA
:0E000000FF080306FF0381FF0FC00FE00F4053
:00000001FF
